{
  "contractName": "StockDeal",
  "abi": [
    {
      "constant": true,
      "inputs": [
        {
          "name": "",
          "type": "uint256"
        }
      ],
      "name": "namecollection",
      "outputs": [
        {
          "name": "",
          "type": "uint256"
        }
      ],
      "payable": false,
      "stateMutability": "view",
      "type": "function"
    },
    {
      "constant": true,
      "inputs": [],
      "name": "chairperson",
      "outputs": [
        {
          "name": "",
          "type": "address"
        }
      ],
      "payable": false,
      "stateMutability": "view",
      "type": "function"
    },
    {
      "constant": false,
      "inputs": [
        {
          "name": "_name",
          "type": "uint256"
        },
        {
          "name": "_amount",
          "type": "uint256"
        }
      ],
      "name": "createStock",
      "outputs": [],
      "payable": false,
      "stateMutability": "nonpayable",
      "type": "function"
    },
    {
      "constant": false,
      "inputs": [
        {
          "name": "_name",
          "type": "uint256"
        },
        {
          "name": "_target",
          "type": "address"
        },
        {
          "name": "_amount",
          "type": "uint256"
        }
      ],
      "name": "distributeByIssuer",
      "outputs": [],
      "payable": false,
      "stateMutability": "nonpayable",
      "type": "function"
    },
    {
      "constant": false,
      "inputs": [
        {
          "name": "_name",
          "type": "uint256"
        },
        {
          "name": "_target",
          "type": "address"
        },
        {
          "name": "_amount",
          "type": "uint256"
        }
      ],
      "name": "transfer",
      "outputs": [],
      "payable": false,
      "stateMutability": "nonpayable",
      "type": "function"
    },
    {
      "constant": false,
      "inputs": [
        {
          "name": "_name",
          "type": "uint256"
        },
        {
          "name": "_target",
          "type": "address"
        },
        {
          "name": "_amount",
          "type": "uint256"
        }
      ],
      "name": "transferDelegate",
      "outputs": [],
      "payable": false,
      "stateMutability": "nonpayable",
      "type": "function"
    },
    {
      "constant": false,
      "inputs": [
        {
          "name": "_name",
          "type": "uint256"
        },
        {
          "name": "_target",
          "type": "address"
        },
        {
          "name": "_amount",
          "type": "uint256"
        }
      ],
      "name": "firstDelegate",
      "outputs": [],
      "payable": false,
      "stateMutability": "nonpayable",
      "type": "function"
    },
    {
      "constant": false,
      "inputs": [
        {
          "name": "_name",
          "type": "uint256"
        },
        {
          "name": "_agent",
          "type": "address"
        },
        {
          "name": "_amount",
          "type": "uint256"
        }
      ],
      "name": "appendDelegate",
      "outputs": [],
      "payable": false,
      "stateMutability": "nonpayable",
      "type": "function"
    },
    {
      "constant": true,
      "inputs": [
        {
          "name": "_owner",
          "type": "address"
        },
        {
          "name": "_name",
          "type": "uint256"
        }
      ],
      "name": "getStockAmount",
      "outputs": [
        {
          "name": "_amount",
          "type": "uint256"
        }
      ],
      "payable": false,
      "stateMutability": "view",
      "type": "function"
    },
    {
      "constant": true,
      "inputs": [
        {
          "name": "_owner",
          "type": "address"
        },
        {
          "name": "_agent",
          "type": "address"
        },
        {
          "name": "_name",
          "type": "uint256"
        }
      ],
      "name": "getStockAgentAmount",
      "outputs": [
        {
          "name": "_amount",
          "type": "uint256"
        }
      ],
      "payable": false,
      "stateMutability": "view",
      "type": "function"
    },
    {
      "constant": true,
      "inputs": [
        {
          "name": "_owner",
          "type": "address"
        },
        {
          "name": "_name",
          "type": "uint256"
        }
      ],
      "name": "getStockIssuer",
      "outputs": [
        {
          "name": "_issuer",
          "type": "address"
        }
      ],
      "payable": false,
      "stateMutability": "view",
      "type": "function"
    },
    {
      "constant": false,
      "inputs": [
        {
          "name": "_owner",
          "type": "address"
        }
      ],
      "name": "getStockName",
      "outputs": [],
      "payable": false,
      "stateMutability": "nonpayable",
      "type": "function"
    },
    {
      "constant": false,
      "inputs": [],
      "name": "getAgents",
      "outputs": [],
      "payable": false,
      "stateMutability": "nonpayable",
      "type": "function"
    }
  ],
  "bytecode": "0x608060405234801561001057600080fd5b506124d7806100206000396000f3006080604052600436106100c5576000357c0100000000000000000000000000000000000000000000000000000000900463ffffffff1680631387cc31146100ca5780631c9cf54c146101075780632e4176cf14610144578063314783511461016f578063411f810e146101985780636c67d786146101c1578063710d1780146101fe57806371ba42051461022757806378969d2914610250578063b6177c0014610279578063e8b40424146102b6578063eac3fda4146102df578063f8548e36146102f6575b600080fd5b3480156100d657600080fd5b506100f160048036036100ec91908101906121bf565b61031f565b6040516100fe919061242e565b60405180910390f35b34801561011357600080fd5b5061012e60048036036101299190810190612183565b610342565b60405161013b919061242e565b60405180910390f35b34801561015057600080fd5b50610159610471565b6040516101669190612393565b60405180910390f35b34801561017b57600080fd5b50610196600480360361019191908101906121e8565b610497565b005b3480156101a457600080fd5b506101bf60048036036101ba91908101906121e8565b61087c565b005b3480156101cd57600080fd5b506101e860048036036101e39190810190612183565b610b95565b6040516101f59190612393565b60405180910390f35b34801561020a57600080fd5b5061022560048036036102209190810190612237565b610ce4565b005b34801561023357600080fd5b5061024e600480360361024991908101906121e8565b610ffd565b005b34801561025c57600080fd5b50610277600480360361027291908101906121e8565b61132c565b005b34801561028557600080fd5b506102a0600480360361029b9190810190612134565b611725565b6040516102ad919061242e565b60405180910390f35b3480156102c257600080fd5b506102dd60048036036102d8919081019061210b565b611912565b005b3480156102eb57600080fd5b506102f4611a00565b005b34801561030257600080fd5b5061031d600480360361031891908101906121e8565b611cbd565b005b60058181548110151561032e57fe5b906000526020600020016000915090505481565b60008060008060008673ffffffffffffffffffffffffffffffffffffffff1673ffffffffffffffffffffffffffffffffffffffff168152602001908152602001600020805490509150600090505b8181101561046957836000808773ffffffffffffffffffffffffffffffffffffffff1673ffffffffffffffffffffffffffffffffffffffff168152602001908152602001600020828154811015156103e457fe5b906000526020600020906003020160000154141561045c576000808673ffffffffffffffffffffffffffffffffffffffff1673ffffffffffffffffffffffffffffffffffffffff1681526020019081526020016000208181548110151561044757fe5b90600052602060002090600302016002015492505b8080600101915050610390565b505092915050565b600260009054906101000a900473ffffffffffffffffffffffffffffffffffffffff1681565b6000806000806000600260009054906101000a900473ffffffffffffffffffffffffffffffffffffffff1673ffffffffffffffffffffffffffffffffffffffff163373ffffffffffffffffffffffffffffffffffffffff16141515610531576040517f08c379a0000000000000000000000000000000000000000000000000000000008152600401610528906123ce565b60405180910390fd5b8673ffffffffffffffffffffffffffffffffffffffff163373ffffffffffffffffffffffffffffffffffffffff16141515156105a2576040517f08c379a00000000000000000000000000000000000000000000000000000000081526004016105999061240e565b60405180910390fd5b6000808873ffffffffffffffffffffffffffffffffffffffff1673ffffffffffffffffffffffffffffffffffffffff1681526020019081526020016000206060604051908101604052808a81526020013373ffffffffffffffffffffffffffffffffffffffff1681526020016000815250908060018154018082558091505090600182039060005260206000209060030201600090919290919091506000820151816000015560208201518160010160006101000a81548173ffffffffffffffffffffffffffffffffffffffff021916908373ffffffffffffffffffffffffffffffffffffffff160217905550604082015181600201555050506000808873ffffffffffffffffffffffffffffffffffffffff1673ffffffffffffffffffffffffffffffffffffffff168152602001908152602001600020805490509450600093505b848410156107de57600080600260009054906101000a900473ffffffffffffffffffffffffffffffffffffffff1673ffffffffffffffffffffffffffffffffffffffff1673ffffffffffffffffffffffffffffffffffffffff1681526020019081526020016000208481548110151561075a57fe5b9060005260206000209060030201925087836000015414156107d1578583600201541115156107be576040517f08c379a00000000000000000000000000000000000000000000000000000000081526004016107b5906123ee565b60405180910390fd5b8583600201600082825403925050819055505b83806001019450506106e5565b600091505b84821015610872576000808873ffffffffffffffffffffffffffffffffffffffff1673ffffffffffffffffffffffffffffffffffffffff1681526020019081526020016000208281548110151561083657fe5b906000526020600020906003020190508781600001541415610865578581600201600082825401925050819055505b81806001019250506107e3565b5050505050505050565b6000806000806000803373ffffffffffffffffffffffffffffffffffffffff1673ffffffffffffffffffffffffffffffffffffffff168152602001908152602001600020805490509350600092505b838310156109a2576000803373ffffffffffffffffffffffffffffffffffffffff1673ffffffffffffffffffffffffffffffffffffffff1681526020019081526020016000208381548110151561091e57fe5b90600052602060002090600302019150868260000154141561099557848260020154111515610982576040517f08c379a0000000000000000000000000000000000000000000000000000000008152600401610979906123ee565b60405180910390fd5b8482600201600082825403925050819055505b82806001019350506108cb565b600360003373ffffffffffffffffffffffffffffffffffffffff1673ffffffffffffffffffffffffffffffffffffffff168152602001908152602001600020805490509350600090505b83811015610b8c578573ffffffffffffffffffffffffffffffffffffffff16600360003373ffffffffffffffffffffffffffffffffffffffff1673ffffffffffffffffffffffffffffffffffffffff16815260200190815260200160002082815481101515610a5757fe5b906000526020600020906004020160000160009054906101000a900473ffffffffffffffffffffffffffffffffffffffff1673ffffffffffffffffffffffffffffffffffffffff16148015610b0b575086600360003373ffffffffffffffffffffffffffffffffffffffff1673ffffffffffffffffffffffffffffffffffffffff16815260200190815260200160002082815481101515610af457fe5b906000526020600020906004020160010160000154145b15610b7f5784600360003373ffffffffffffffffffffffffffffffffffffffff1673ffffffffffffffffffffffffffffffffffffffff16815260200190815260200160002082815481101515610b5d57fe5b9060005260206000209060040201600101600201600082825401925050819055505b80806001019150506109ec565b50505050505050565b60008060008060008673ffffffffffffffffffffffffffffffffffffffff1673ffffffffffffffffffffffffffffffffffffffff168152602001908152602001600020805490509150600090505b81811015610cdc57836000808773ffffffffffffffffffffffffffffffffffffffff1673ffffffffffffffffffffffffffffffffffffffff16815260200190815260200160002082815481101515610c3757fe5b9060005260206000209060030201600001541415610ccf576000808673ffffffffffffffffffffffffffffffffffffffff1673ffffffffffffffffffffffffffffffffffffffff16815260200190815260200160002081815481101515610c9a57fe5b906000526020600020906003020160010160009054906101000a900473ffffffffffffffffffffffffffffffffffffffff1692505b8080600101915050610be3565b505092915050565b33600260006101000a81548173ffffffffffffffffffffffffffffffffffffffff021916908373ffffffffffffffffffffffffffffffffffffffff1602179055508160016000600260009054906101000a900473ffffffffffffffffffffffffffffffffffffffff1673ffffffffffffffffffffffffffffffffffffffff1673ffffffffffffffffffffffffffffffffffffffff16815260200190815260200160002060000181905550600260009054906101000a900473ffffffffffffffffffffffffffffffffffffffff1660016000600260009054906101000a900473ffffffffffffffffffffffffffffffffffffffff1673ffffffffffffffffffffffffffffffffffffffff1673ffffffffffffffffffffffffffffffffffffffff16815260200190815260200160002060010160006101000a81548173ffffffffffffffffffffffffffffffffffffffff021916908373ffffffffffffffffffffffffffffffffffffffff1602179055508060016000600260009054906101000a900473ffffffffffffffffffffffffffffffffffffffff1673ffffffffffffffffffffffffffffffffffffffff1673ffffffffffffffffffffffffffffffffffffffff16815260200190815260200160002060020181905550600080600260009054906101000a900473ffffffffffffffffffffffffffffffffffffffff1673ffffffffffffffffffffffffffffffffffffffff1673ffffffffffffffffffffffffffffffffffffffff168152602001908152602001600020606060405190810160405280848152602001600260009054906101000a900473ffffffffffffffffffffffffffffffffffffffff1673ffffffffffffffffffffffffffffffffffffffff16815260200183815250908060018154018082558091505090600182039060005260206000209060030201600090919290919091506000820151816000015560208201518160010160006101000a81548173ffffffffffffffffffffffffffffffffffffffff021916908373ffffffffffffffffffffffffffffffffffffffff160217905550604082015181600201555050505050565b60006110076120ab565b60008060008673ffffffffffffffffffffffffffffffffffffffff163373ffffffffffffffffffffffffffffffffffffffff161415151561107d576040517f08c379a0000000000000000000000000000000000000000000000000000000008152600401611074906123ae565b60405180910390fd5b6110873389610b95565b94506060604051908101604052808981526020018673ffffffffffffffffffffffffffffffffffffffff168152602001878152509350600360003373ffffffffffffffffffffffffffffffffffffffff1673ffffffffffffffffffffffffffffffffffffffff16815260200190815260200160002060408051908101604052808973ffffffffffffffffffffffffffffffffffffffff168152602001868152509080600181540180825580915050906001820390600052602060002090600402016000909192909190915060008201518160000160006101000a81548173ffffffffffffffffffffffffffffffffffffffff021916908373ffffffffffffffffffffffffffffffffffffffff1602179055506020820151816001016000820151816000015560208201518160010160006101000a81548173ffffffffffffffffffffffffffffffffffffffff021916908373ffffffffffffffffffffffffffffffffffffffff1602179055506040820151816002015550505050506000803373ffffffffffffffffffffffffffffffffffffffff1673ffffffffffffffffffffffffffffffffffffffff168152602001908152602001600020805490509250600091505b82821015611322576000803373ffffffffffffffffffffffffffffffffffffffff1673ffffffffffffffffffffffffffffffffffffffff1681526020019081526020016000208281548110151561129e57fe5b90600052602060002090600302019050878160000154141561131557858160020154111515611302576040517f08c379a00000000000000000000000000000000000000000000000000000000081526004016112f9906123ee565b60405180910390fd5b8581600201600082825403925050819055505b818060010192505061124b565b5050505050505050565b6000806000806000808773ffffffffffffffffffffffffffffffffffffffff163373ffffffffffffffffffffffffffffffffffffffff16141515156113a6576040517f08c379a000000000000000000000000000000000000000000000000000000000815260040161139d906123ae565b60405180910390fd5b6000808973ffffffffffffffffffffffffffffffffffffffff1673ffffffffffffffffffffffffffffffffffffffff168152602001908152602001600020805490509550600360003373ffffffffffffffffffffffffffffffffffffffff1673ffffffffffffffffffffffffffffffffffffffff168152602001908152602001600020805490509450600093505b8484101561151557600360003373ffffffffffffffffffffffffffffffffffffffff1673ffffffffffffffffffffffffffffffffffffffff1681526020019081526020016000208481548110151561148857fe5b906000526020600020906004020192508883600101600001541415611508578683600101600201541115156114f2576040517f08c379a00000000000000000000000000000000000000000000000000000000081526004016114e9906123ee565b60405180910390fd5b8683600101600201600082825403925050819055505b8380600101945050611434565b60009150600090505b8581101561160a57886000808a73ffffffffffffffffffffffffffffffffffffffff1673ffffffffffffffffffffffffffffffffffffffff1681526020019081526020016000208281548110151561157257fe5b90600052602060002090600302016000015414156115fd57866000808a73ffffffffffffffffffffffffffffffffffffffff1673ffffffffffffffffffffffffffffffffffffffff168152602001908152602001600020828154811015156115d657fe5b9060005260206000209060030201600201600082825401925050819055506001915061160a565b808060010191505061151e565b60001515821515141561171a576000808973ffffffffffffffffffffffffffffffffffffffff1673ffffffffffffffffffffffffffffffffffffffff1681526020019081526020016000206060604051908101604052808b8152602001611671338d610b95565b73ffffffffffffffffffffffffffffffffffffffff16815260200189815250908060018154018082558091505090600182039060005260206000209060030201600090919290919091506000820151816000015560208201518160010160006101000a81548173ffffffffffffffffffffffffffffffffffffffff021916908373ffffffffffffffffffffffffffffffffffffffff160217905550604082015181600201555050505b505050505050505050565b6000806000600360008773ffffffffffffffffffffffffffffffffffffffff1673ffffffffffffffffffffffffffffffffffffffff168152602001908152602001600020805490509150600090505b81811015611909578473ffffffffffffffffffffffffffffffffffffffff16600360008873ffffffffffffffffffffffffffffffffffffffff1673ffffffffffffffffffffffffffffffffffffffff168152602001908152602001600020828154811015156117df57fe5b906000526020600020906004020160000160009054906101000a900473ffffffffffffffffffffffffffffffffffffffff1673ffffffffffffffffffffffffffffffffffffffff16148015611893575083600360008873ffffffffffffffffffffffffffffffffffffffff1673ffffffffffffffffffffffffffffffffffffffff1681526020019081526020016000208281548110151561187c57fe5b906000526020600020906004020160010160000154145b156118fc57600360008773ffffffffffffffffffffffffffffffffffffffff1673ffffffffffffffffffffffffffffffffffffffff168152602001908152602001600020818154811015156118e457fe5b90600052602060002090600402016001016002015492505b8080600101915050611774565b50509392505050565b6000806000808473ffffffffffffffffffffffffffffffffffffffff1673ffffffffffffffffffffffffffffffffffffffff168152602001908152602001600020805490509150600090505b818110156119fb5760056000808573ffffffffffffffffffffffffffffffffffffffff1673ffffffffffffffffffffffffffffffffffffffff168152602001908152602001600020828154811015156119b357fe5b9060005260206000209060030201600001549080600181540180825580915050906001820390600052602060002001600090919290919091505550808060010191505061195e565b505050565b600080600360003373ffffffffffffffffffffffffffffffffffffffff1673ffffffffffffffffffffffffffffffffffffffff168152602001908152602001600020805490509150600090505b81811015611cb95760046040805190810160405280600360003373ffffffffffffffffffffffffffffffffffffffff1673ffffffffffffffffffffffffffffffffffffffff16815260200190815260200160002084815481101515611aae57fe5b906000526020600020906004020160000160009054906101000a900473ffffffffffffffffffffffffffffffffffffffff1673ffffffffffffffffffffffffffffffffffffffff168152602001600360003373ffffffffffffffffffffffffffffffffffffffff1673ffffffffffffffffffffffffffffffffffffffff16815260200190815260200160002084815481101515611b4757fe5b906000526020600020906004020160010160606040519081016040529081600082015481526020016001820160009054906101000a900473ffffffffffffffffffffffffffffffffffffffff1673ffffffffffffffffffffffffffffffffffffffff1673ffffffffffffffffffffffffffffffffffffffff1681526020016002820154815250508152509080600181540180825580915050906001820390600052602060002090600402016000909192909190915060008201518160000160006101000a81548173ffffffffffffffffffffffffffffffffffffffff021916908373ffffffffffffffffffffffffffffffffffffffff1602179055506020820151816001016000820151816000015560208201518160010160006101000a81548173ffffffffffffffffffffffffffffffffffffffff021916908373ffffffffffffffffffffffffffffffffffffffff1602179055506040820151816002015550505050508080600101915050611a4d565b5050565b6000806000806000808773ffffffffffffffffffffffffffffffffffffffff163373ffffffffffffffffffffffffffffffffffffffff1614151515611d37576040517f08c379a0000000000000000000000000000000000000000000000000000000008152600401611d2e906123ae565b60405180910390fd5b6000808973ffffffffffffffffffffffffffffffffffffffff1673ffffffffffffffffffffffffffffffffffffffff1681526020019081526020016000208054905095506000803373ffffffffffffffffffffffffffffffffffffffff1673ffffffffffffffffffffffffffffffffffffffff168152602001908152602001600020805490509450600093505b84841015611e9b576000803373ffffffffffffffffffffffffffffffffffffffff1673ffffffffffffffffffffffffffffffffffffffff16815260200190815260200160002084815481101515611e1757fe5b906000526020600020906003020192508883600001541415611e8e57868360020154111515611e7b576040517f08c379a0000000000000000000000000000000000000000000000000000000008152600401611e72906123ee565b60405180910390fd5b8683600201600082825403925050819055505b8380600101945050611dc4565b60009150600090505b85811015611f9057886000808a73ffffffffffffffffffffffffffffffffffffffff1673ffffffffffffffffffffffffffffffffffffffff16815260200190815260200160002082815481101515611ef857fe5b9060005260206000209060030201600001541415611f8357866000808a73ffffffffffffffffffffffffffffffffffffffff1673ffffffffffffffffffffffffffffffffffffffff16815260200190815260200160002082815481101515611f5c57fe5b90600052602060002090600302016002016000828254019250508190555060019150611f90565b8080600101915050611ea4565b6000151582151514156120a0576000808973ffffffffffffffffffffffffffffffffffffffff1673ffffffffffffffffffffffffffffffffffffffff1681526020019081526020016000206060604051908101604052808b8152602001611ff7338d610b95565b73ffffffffffffffffffffffffffffffffffffffff16815260200189815250908060018154018082558091505090600182039060005260206000209060030201600090919290919091506000820151816000015560208201518160010160006101000a81548173ffffffffffffffffffffffffffffffffffffffff021916908373ffffffffffffffffffffffffffffffffffffffff160217905550604082015181600201555050505b505050505050505050565b60606040519081016040528060008152602001600073ffffffffffffffffffffffffffffffffffffffff168152602001600081525090565b60006120ef8235612473565b905092915050565b60006121038235612493565b905092915050565b60006020828403121561211d57600080fd5b600061212b848285016120e3565b91505092915050565b60008060006060848603121561214957600080fd5b6000612157868287016120e3565b9350506020612168868287016120e3565b9250506040612179868287016120f7565b9150509250925092565b6000806040838503121561219657600080fd5b60006121a4858286016120e3565b92505060206121b5858286016120f7565b9150509250929050565b6000602082840312156121d157600080fd5b60006121df848285016120f7565b91505092915050565b6000806000606084860312156121fd57600080fd5b600061220b868287016120f7565b935050602061221c868287016120e3565b925050604061222d868287016120f7565b9150509250925092565b6000806040838503121561224a57600080fd5b6000612258858286016120f7565b9250506020612269858286016120f7565b9150509250929050565b61227c81612449565b82525050565b6000601e82527f43616e2774207472616e7366657220697420746f20796f757273656c662e00006020830152604082019050919050565b6000602a82527f4f6e6c79206368616972706572736f6e2063616e20676976652073746f636b2060208301527f746f206f74686572732e000000000000000000000000000000000000000000006040830152606082019050919050565b6000601b82527f596f75722062616c616e6365206973206e6f7420656e6f7567682e00000000006020830152604082019050919050565b6000601a82527f43616e2774206769766520697420746f20796f757273656c662e0000000000006020830152604082019050919050565b61238d81612469565b82525050565b60006020820190506123a86000830184612273565b92915050565b600060208201905081810360008301526123c781612282565b9050919050565b600060208201905081810360008301526123e7816122b9565b9050919050565b6000602082019050818103600083015261240781612316565b9050919050565b600060208201905081810360008301526124278161234d565b9050919050565b60006020820190506124436000830184612384565b92915050565b600073ffffffffffffffffffffffffffffffffffffffff82169050919050565b6000819050919050565b600073ffffffffffffffffffffffffffffffffffffffff82169050919050565b60008190509190505600a265627a7a723058200bbeaf7e616765aa3874b53b744577890c7e7bec9c418038ee0454ba1b9e072a6c6578706572696d656e74616cf50037",
  "source": "pragma solidity ^0.4.23;\r\npragma experimental ABIEncoderV2;\r\n// \r\ncontract StockDeal {\r\n    struct Stock {\r\n        uint256 name; // \r\n        address issuer; //\r\n        uint amount; //\r\n    }\r\n\r\n    struct Agent {\r\n        address agent;\r\n        // \r\n        Stock stock; // Stock[] stock;\r\n    }\r\n\r\n    //  external  internal  \r\n    //mapping(address => mapping(uint256 => Stock[])) public users; //\r\n    mapping(address => Stock[]) users; //  amount\r\n\r\n    mapping(address => Stock) stocks; //  amount:\r\n    address public chairperson; // \r\n\r\n    mapping(address => Agent[]) agents; // \r\n    Agent[] myallagents; // \r\n    uint256[] public namecollection; // \r\n\r\n    // 1\r\n    function createStock (\r\n        uint256 _name,\r\n        uint _amount\r\n    ) public {\r\n        chairperson = msg.sender;\r\n        // \r\n        stocks[chairperson].name = _name;\r\n        stocks[chairperson].issuer = chairperson;\r\n        stocks[chairperson].amount = _amount;\r\n        // \r\n        users[chairperson].push(Stock({\r\n            name : _name,\r\n            issuer : chairperson,\r\n            amount : _amount\r\n            }));\r\n    }\r\n\r\n    //  user.push(0)\r\n    // \r\n    function distributeByIssuer (\r\n        uint256 _name, // \r\n        address _target, // \r\n        uint _amount  // \r\n    ) public {\r\n        // \r\n        require(\r\n            msg.sender == chairperson,\r\n            \"Only chairperson can give stock to others.\"\r\n        );\r\n\r\n        // \r\n        require(\r\n            msg.sender != _target,\r\n            \"Can't give it to yourself.\"\r\n        );\r\n\r\n        users[_target].push(Stock({\r\n            name : _name,\r\n            issuer : msg.sender,\r\n            amount : 0\r\n            }));\r\n\r\n        uint length = users[_target].length;\r\n        for (uint i = 0; i < length; i++) {\r\n            Stock storage stock = users[chairperson][i];\r\n            if (stock.name == _name) {\r\n                // \r\n                require(\r\n                    stock.amount > _amount,\r\n                    \"Your balance is not enough.\"\r\n                );\r\n                stock.amount -= _amount;\r\n            }\r\n        }\r\n\r\n        for (uint j = 0; j < length; j++) {\r\n            Stock storage stock2 = users[_target][j];\r\n            if (stock2.name == _name) {\r\n                stock2.amount += _amount;\r\n            }\r\n        }\r\n\r\n    }\r\n\r\n    // \r\n    // \r\n    // \r\n    function transfer (\r\n        uint256 _name, // \r\n        address _target, // \r\n        uint _amount // \r\n    ) public {\r\n        // \r\n        require(\r\n            msg.sender != _target,\r\n            \"Can't transfer it to yourself.\"\r\n        );\r\n\r\n        uint targetlength = users[_target].length;\r\n        uint msglength = users[msg.sender].length;\r\n        for (uint i = 0; i < msglength; i++) {\r\n            Stock storage stock = users[msg.sender][i];\r\n            if (stock.name == _name) {\r\n                // \r\n                require(\r\n                    stock.amount > _amount,\r\n                    \"Your balance is not enough.\"\r\n                );\r\n                stock.amount -= _amount;\r\n            }\r\n        }\r\n\r\n        bool flag = false;\r\n        for (uint j = 0; j < targetlength; j++) {\r\n            if (users[_target][j].name == _name) {\r\n                users[_target][j].amount += _amount;\r\n                flag = true;\r\n                break;\r\n            }\r\n        }\r\n        if (flag == false) {\r\n            users[_target].push(Stock({\r\n            name : _name,\r\n            issuer : getStockIssuer(msg.sender, _name), //\r\n            amount : _amount\r\n            }));\r\n        }\r\n\r\n        // \r\n        //_target.transfer(msg.value);\r\n    }\r\n\r\n    // \r\n    function transferDelegate (\r\n        uint256 _name, // \r\n        address _target, // \r\n        uint _amount // \r\n    ) public {\r\n        // \r\n        require(\r\n            msg.sender != _target,\r\n            \"Can't transfer it to yourself.\"\r\n        );\r\n\r\n        uint targetlength = users[_target].length;\r\n        uint msglength = agents[msg.sender].length;\r\n\r\n        for (uint i = 0; i < msglength; i++) {\r\n            Agent storage _agent = agents[msg.sender][i];\r\n            if (_agent.stock.name == _name) {\r\n\t\t   // \r\n                require(\r\n                    _agent.stock.amount > _amount,\r\n                    \"Your balance is not enough.\"\r\n                );\r\n                _agent.stock.amount -= _amount;\r\n            }\r\n        }\r\n\r\n        bool flag = false;\r\n        for (uint j = 0; j < targetlength; j++) {\r\n            if (users[_target][j].name == _name) {\r\n                users[_target][j].amount += _amount;\r\n                flag = true;\r\n                break;\r\n            }\r\n        }\r\n        if (flag == false) {\r\n            users[_target].push(Stock({\r\n                name : _name,\r\n                issuer : getStockIssuer(msg.sender, _name), //\r\n                amount : _amount\r\n                }));\r\n        }\r\n\r\n        // \r\n        //_target.transfer(msg.value);\r\n    }\r\n\r\n\r\n    // \r\n    function firstDelegate (\r\n        uint256 _name, // \r\n        address _target, // \r\n        uint _amount // \r\n    ) public {\r\n        // \r\n        require(\r\n            msg.sender != _target,\r\n            \"Can't transfer it to yourself.\"\r\n        );\r\n\r\n        address _issuer = getStockIssuer(msg.sender, _name);\r\n\r\n        // \r\n        Stock memory _stock = Stock({\r\n            name : _name,\r\n            issuer : _issuer,\r\n            amount : _amount\r\n            });\r\n\r\n        // \r\n        agents[msg.sender].push(Agent({\r\n            agent : _target,\r\n            stock : _stock\r\n            }));\r\n\r\n        // \r\n        uint length = users[msg.sender].length;\r\n        for (uint i = 0; i < length; i++) {\r\n            Stock storage stock = users[msg.sender][i];\r\n            if (stock.name == _name) {\r\n                // \r\n                require(\r\n                    stock.amount > _amount,\r\n                    \"Your balance is not enough.\"\r\n                );\r\n                stock.amount -= _amount;\r\n            }\r\n        }\r\n\r\n        // \r\n        //_target.transfer(msg.value);\r\n    }\r\n\r\n    // \r\n    function appendDelegate (\r\n        uint256 _name,\r\n        address _agent,\r\n        uint _amount\r\n    ) public {\r\n        // \r\n        uint length = users[msg.sender].length;\r\n        for (uint i = 0; i < length; i++) {\r\n            Stock storage stock = users[msg.sender][i];\r\n            if (stock.name == _name) {\r\n                // \r\n                require(\r\n                    stock.amount > _amount,\r\n                    \"Your balance is not enough.\"\r\n                );\r\n                stock.amount -= _amount;\r\n            }\r\n        }\r\n\r\n        length = agents[msg.sender].length;\r\n        for (uint j = 0; j < length; j++) {\r\n            if ((agents[msg.sender][j].agent == _agent) && (agents[msg.sender][j].stock.name == _name)) {\r\n                agents[msg.sender][j].stock.amount += _amount;\r\n            }\r\n        }\r\n\r\n        // \r\n        //_agent.transfer(msg.value);\r\n    }\r\n\r\n\r\n    ///  \r\n    // \r\n    function getStockAmount (\r\n        address _owner, // \r\n        uint256 _name // \r\n    ) public view returns (uint _amount) {\r\n        uint length = users[_owner].length;\r\n        for (uint i = 0; i < length; i++) {\r\n            if (users[_owner][i].name == _name) {\r\n                _amount = users[_owner][i].amount;\r\n            }\r\n        }\r\n    }\r\n\r\n    // \r\n    function getStockAgentAmount (\r\n        address _owner,// \r\n        address _agent, // \r\n        uint256 _name // \r\n    ) public view returns (uint _amount) {\r\n        uint length = agents[_owner].length;\r\n        for (uint i = 0; i < length; i++) {\r\n            if ((agents[_owner][i].agent == _agent) && (agents[_owner][i].stock.name == _name)) {\r\n                _amount = agents[_owner][i].stock.amount;\r\n            }\r\n        }\r\n    }\r\n\r\n    //  \r\n    function getStockIssuer (\r\n        address _owner, // \r\n        uint256 _name // \r\n    ) public view returns (address _issuer) {\r\n        uint length = users[_owner].length;\r\n        for (uint i = 0; i < length; i++) {\r\n            if (users[_owner][i].name == _name) {\r\n                _issuer = users[_owner][i].issuer;\r\n            }\r\n        }\r\n    }\r\n\r\n    //  \r\n    function getStockName (\r\n        address _owner  // \r\n    ) public {\r\n        uint length = users[_owner].length;\r\n        for (uint i = 0; i < length; i++) {\r\n            namecollection.push(users[_owner][i].name);\r\n        }\r\n    }\r\n\r\n    // bugagent\r\n    function getAgents (\r\n    ) public {\r\n        uint length = agents[msg.sender].length;\r\n        for (uint i = 0; i < length; i++) {\r\n            // \r\n            myallagents.push(Agent({\r\n                agent : agents[msg.sender][i].agent,\r\n                stock : agents[msg.sender][i].stock\r\n                }));\r\n        }\r\n    }\r\n}",
  "sourcePath": "D:\\java\\IdeaProjects\\StockDeal\\web\\contracts\\StockDeal.sol",
  "compiler": {
    "name": "solc",
    "version": "0.4.24+commit.e67f0147.Emscripten.clang"
  },
  "schemaVersion": "2.0.0",
  "updatedAt": "2019-10-08T11:58:14.261Z"
}